{
    "abi": [
        {
            "inputs": [
                {
                    "internalType": "uint256",
                    "name": "controllerGasLimit",
                    "type": "uint256"
                }
            ],
            "stateMutability": "nonpayable",
            "type": "constructor"
        },
        {
            "inputs": [],
            "name": "CannotUpdateEmptyPosition",
            "type": "error"
        },
        {
            "inputs": [],
            "name": "CurrenciesInitializedOutOfOrder",
            "type": "error"
        },
        {
            "inputs": [],
            "name": "CurrencyNotSettled",
            "type": "error"
        },
        {
            "inputs": [],
            "name": "DelegateCallNotAllowed",
            "type": "error"
        },
        {
            "inputs": [],
            "name": "ERC20TransferFailed",
            "type": "error"
        },
        {
            "inputs": [],
            "name": "FeeTooLarge",
            "type": "error"
        },
        {
            "inputs": [
                {
                    "internalType": "address",
                    "name": "hooks",
                    "type": "address"
                }
            ],
            "name": "HookAddressNotValid",
            "type": "error"
        },
        {
            "inputs": [],
            "name": "InvalidCaller",
            "type": "error"
        },
        {
            "inputs": [],
            "name": "InvalidHookResponse",
            "type": "error"
        },
        {
            "inputs": [],
            "name": "InvalidSqrtRatio",
            "type": "error"
        },
        {
            "inputs": [],
            "name": "InvalidTick",
            "type": "error"
        },
        {
            "inputs": [
                {
                    "internalType": "address",
                    "name": "locker",
                    "type": "address"
                }
            ],
            "name": "LockedBy",
            "type": "error"
        },
        {
            "inputs": [],
            "name": "MaxCurrenciesTouched",
            "type": "error"
        },
        {
            "inputs": [],
            "name": "NativeTransferFailed",
            "type": "error"
        },
        {
            "inputs": [],
            "name": "NoLiquidityToReceiveFees",
            "type": "error"
        },
        {
            "inputs": [],
            "name": "NotPoolManagerToken",
            "type": "error"
        },
        {
            "inputs": [],
            "name": "PoolAlreadyInitialized",
            "type": "error"
        },
        {
            "inputs": [],
            "name": "PoolNotInitialized",
            "type": "error"
        },
        {
            "inputs": [
                {
                    "internalType": "uint160",
                    "name": "sqrtPriceCurrentX96",
                    "type": "uint160"
                },
                {
                    "internalType": "uint160",
                    "name": "sqrtPriceLimitX96",
                    "type": "uint160"
                }
            ],
            "name": "PriceLimitAlreadyExceeded",
            "type": "error"
        },
        {
            "inputs": [
                {
                    "internalType": "uint160",
                    "name": "sqrtPriceLimitX96",
                    "type": "uint160"
                }
            ],
            "name": "PriceLimitOutOfBounds",
            "type": "error"
        },
        {
            "inputs": [],
            "name": "ProtocolFeeCannotBeFetched",
            "type": "error"
        },
        {
            "inputs": [],
            "name": "SwapAmountCannotBeZero",
            "type": "error"
        },
        {
            "inputs": [
                {
                    "internalType": "int24",
                    "name": "tick",
                    "type": "int24"
                }
            ],
            "name": "TickLiquidityOverflow",
            "type": "error"
        },
        {
            "inputs": [
                {
                    "internalType": "int24",
                    "name": "tickLower",
                    "type": "int24"
                }
            ],
            "name": "TickLowerOutOfBounds",
            "type": "error"
        },
        {
            "inputs": [
                {
                    "internalType": "int24",
                    "name": "tick",
                    "type": "int24"
                },
                {
                    "internalType": "int24",
                    "name": "tickSpacing",
                    "type": "int24"
                }
            ],
            "name": "TickMisaligned",
            "type": "error"
        },
        {
            "inputs": [],
            "name": "TickSpacingTooLarge",
            "type": "error"
        },
        {
            "inputs": [],
            "name": "TickSpacingTooSmall",
            "type": "error"
        },
        {
            "inputs": [
                {
                    "internalType": "int24",
                    "name": "tickUpper",
                    "type": "int24"
                }
            ],
            "name": "TickUpperOutOfBounds",
            "type": "error"
        },
        {
            "inputs": [
                {
                    "internalType": "int24",
                    "name": "tickLower",
                    "type": "int24"
                },
                {
                    "internalType": "int24",
                    "name": "tickUpper",
                    "type": "int24"
                }
            ],
            "name": "TicksMisordered",
            "type": "error"
        },
        {
            "anonymous": false,
            "inputs": [
                {
                    "indexed": true,
                    "internalType": "address",
                    "name": "account",
                    "type": "address"
                },
                {
                    "indexed": true,
                    "internalType": "address",
                    "name": "operator",
                    "type": "address"
                },
                {
                    "indexed": false,
                    "internalType": "bool",
                    "name": "approved",
                    "type": "bool"
                }
            ],
            "name": "ApprovalForAll",
            "type": "event"
        },
        {
            "anonymous": false,
            "inputs": [
                {
                    "indexed": true,
                    "internalType": "PoolId",
                    "name": "id",
                    "type": "bytes32"
                },
                {
                    "indexed": false,
                    "internalType": "uint24",
                    "name": "hookFees",
                    "type": "uint24"
                }
            ],
            "name": "HookFeeUpdated",
            "type": "event"
        },
        {
            "anonymous": false,
            "inputs": [
                {
                    "indexed": true,
                    "internalType": "PoolId",
                    "name": "id",
                    "type": "bytes32"
                },
                {
                    "indexed": true,
                    "internalType": "Currency",
                    "name": "currency0",
                    "type": "address"
                },
                {
                    "indexed": true,
                    "internalType": "Currency",
                    "name": "currency1",
                    "type": "address"
                },
                {
                    "indexed": false,
                    "internalType": "uint24",
                    "name": "fee",
                    "type": "uint24"
                },
                {
                    "indexed": false,
                    "internalType": "int24",
                    "name": "tickSpacing",
                    "type": "int24"
                },
                {
                    "indexed": false,
                    "internalType": "contract IHooks",
                    "name": "hooks",
                    "type": "address"
                }
            ],
            "name": "Initialize",
            "type": "event"
        },
        {
            "anonymous": false,
            "inputs": [
                {
                    "indexed": true,
                    "internalType": "PoolId",
                    "name": "id",
                    "type": "bytes32"
                },
                {
                    "indexed": true,
                    "internalType": "address",
                    "name": "sender",
                    "type": "address"
                },
                {
                    "indexed": false,
                    "internalType": "int24",
                    "name": "tickLower",
                    "type": "int24"
                },
                {
                    "indexed": false,
                    "internalType": "int24",
                    "name": "tickUpper",
                    "type": "int24"
                },
                {
                    "indexed": false,
                    "internalType": "int256",
                    "name": "liquidityDelta",
                    "type": "int256"
                }
            ],
            "name": "ModifyPosition",
            "type": "event"
        },
        {
            "anonymous": false,
            "inputs": [
                {
                    "indexed": true,
                    "internalType": "address",
                    "name": "oldOwner",
                    "type": "address"
                },
                {
                    "indexed": true,
                    "internalType": "address",
                    "name": "newOwner",
                    "type": "address"
                }
            ],
            "name": "OwnerChanged",
            "type": "event"
        },
        {
            "anonymous": false,
            "inputs": [
                {
                    "indexed": false,
                    "internalType": "address",
                    "name": "protocolFeeController",
                    "type": "address"
                }
            ],
            "name": "ProtocolFeeControllerUpdated",
            "type": "event"
        },
        {
            "anonymous": false,
            "inputs": [
                {
                    "indexed": true,
                    "internalType": "PoolId",
                    "name": "id",
                    "type": "bytes32"
                },
                {
                    "indexed": false,
                    "internalType": "uint24",
                    "name": "protocolFees",
                    "type": "uint24"
                }
            ],
            "name": "ProtocolFeeUpdated",
            "type": "event"
        },
        {
            "anonymous": false,
            "inputs": [
                {
                    "indexed": true,
                    "internalType": "PoolId",
                    "name": "id",
                    "type": "bytes32"
                },
                {
                    "indexed": true,
                    "internalType": "address",
                    "name": "sender",
                    "type": "address"
                },
                {
                    "indexed": false,
                    "internalType": "int128",
                    "name": "amount0",
                    "type": "int128"
                },
                {
                    "indexed": false,
                    "internalType": "int128",
                    "name": "amount1",
                    "type": "int128"
                },
                {
                    "indexed": false,
                    "internalType": "uint160",
                    "name": "sqrtPriceX96",
                    "type": "uint160"
                },
                {
                    "indexed": false,
                    "internalType": "uint128",
                    "name": "liquidity",
                    "type": "uint128"
                },
                {
                    "indexed": false,
                    "internalType": "int24",
                    "name": "tick",
                    "type": "int24"
                },
                {
                    "indexed": false,
                    "internalType": "uint24",
                    "name": "fee",
                    "type": "uint24"
                }
            ],
            "name": "Swap",
            "type": "event"
        },
        {
            "anonymous": false,
            "inputs": [
                {
                    "indexed": true,
                    "internalType": "address",
                    "name": "operator",
                    "type": "address"
                },
                {
                    "indexed": true,
                    "internalType": "address",
                    "name": "from",
                    "type": "address"
                },
                {
                    "indexed": true,
                    "internalType": "address",
                    "name": "to",
                    "type": "address"
                },
                {
                    "indexed": false,
                    "internalType": "uint256[]",
                    "name": "ids",
                    "type": "uint256[]"
                },
                {
                    "indexed": false,
                    "internalType": "uint256[]",
                    "name": "values",
                    "type": "uint256[]"
                }
            ],
            "name": "TransferBatch",
            "type": "event"
        },
        {
            "anonymous": false,
            "inputs": [
                {
                    "indexed": true,
                    "internalType": "address",
                    "name": "operator",
                    "type": "address"
                },
                {
                    "indexed": true,
                    "internalType": "address",
                    "name": "from",
                    "type": "address"
                },
                {
                    "indexed": true,
                    "internalType": "address",
                    "name": "to",
                    "type": "address"
                },
                {
                    "indexed": false,
                    "internalType": "uint256",
                    "name": "id",
                    "type": "uint256"
                },
                {
                    "indexed": false,
                    "internalType": "uint256",
                    "name": "value",
                    "type": "uint256"
                }
            ],
            "name": "TransferSingle",
            "type": "event"
        },
        {
            "anonymous": false,
            "inputs": [
                {
                    "indexed": false,
                    "internalType": "string",
                    "name": "value",
                    "type": "string"
                },
                {
                    "indexed": true,
                    "internalType": "uint256",
                    "name": "id",
                    "type": "uint256"
                }
            ],
            "name": "URI",
            "type": "event"
        },
        {
            "inputs": [],
            "name": "MAX_TICK_SPACING",
            "outputs": [
                {
                    "internalType": "int24",
                    "name": "",
                    "type": "int24"
                }
            ],
            "stateMutability": "view",
            "type": "function"
        },
        {
            "inputs": [],
            "name": "MIN_PROTOCOL_FEE_DENOMINATOR",
            "outputs": [
                {
                    "internalType": "uint8",
                    "name": "",
                    "type": "uint8"
                }
            ],
            "stateMutability": "view",
            "type": "function"
        },
        {
            "inputs": [],
            "name": "MIN_TICK_SPACING",
            "outputs": [
                {
                    "internalType": "int24",
                    "name": "",
                    "type": "int24"
                }
            ],
            "stateMutability": "view",
            "type": "function"
        },
        {
            "inputs": [
                {
                    "internalType": "address",
                    "name": "account",
                    "type": "address"
                },
                {
                    "internalType": "uint256",
                    "name": "id",
                    "type": "uint256"
                }
            ],
            "name": "balanceOf",
            "outputs": [
                {
                    "internalType": "uint256",
                    "name": "",
                    "type": "uint256"
                }
            ],
            "stateMutability": "view",
            "type": "function"
        },
        {
            "inputs": [
                {
                    "internalType": "address[]",
                    "name": "accounts",
                    "type": "address[]"
                },
                {
                    "internalType": "uint256[]",
                    "name": "ids",
                    "type": "uint256[]"
                }
            ],
            "name": "balanceOfBatch",
            "outputs": [
                {
                    "internalType": "uint256[]",
                    "name": "",
                    "type": "uint256[]"
                }
            ],
            "stateMutability": "view",
            "type": "function"
        },
        {
            "inputs": [
                {
                    "internalType": "address",
                    "name": "recipient",
                    "type": "address"
                },
                {
                    "internalType": "Currency",
                    "name": "currency",
                    "type": "address"
                },
                {
                    "internalType": "uint256",
                    "name": "amount",
                    "type": "uint256"
                }
            ],
            "name": "collectHookFees",
            "outputs": [
                {
                    "internalType": "uint256",
                    "name": "amountCollected",
                    "type": "uint256"
                }
            ],
            "stateMutability": "nonpayable",
            "type": "function"
        },
        {
            "inputs": [
                {
                    "internalType": "address",
                    "name": "recipient",
                    "type": "address"
                },
                {
                    "internalType": "Currency",
                    "name": "currency",
                    "type": "address"
                },
                {
                    "internalType": "uint256",
                    "name": "amount",
                    "type": "uint256"
                }
            ],
            "name": "collectProtocolFees",
            "outputs": [
                {
                    "internalType": "uint256",
                    "name": "amountCollected",
                    "type": "uint256"
                }
            ],
            "stateMutability": "nonpayable",
            "type": "function"
        },
        {
            "inputs": [
                {
                    "internalType": "address",
                    "name": "locker",
                    "type": "address"
                },
                {
                    "internalType": "Currency",
                    "name": "currency",
                    "type": "address"
                }
            ],
            "name": "currencyDelta",
            "outputs": [
                {
                    "internalType": "int256",
                    "name": "currencyDelta",
                    "type": "int256"
                }
            ],
            "stateMutability": "view",
            "type": "function"
        },
        {
            "inputs": [
                {
                    "components": [
                        {
                            "internalType": "Currency",
                            "name": "currency0",
                            "type": "address"
                        },
                        {
                            "internalType": "Currency",
                            "name": "currency1",
                            "type": "address"
                        },
                        {
                            "internalType": "uint24",
                            "name": "fee",
                            "type": "uint24"
                        },
                        {
                            "internalType": "int24",
                            "name": "tickSpacing",
                            "type": "int24"
                        },
                        {
                            "internalType": "contract IHooks",
                            "name": "hooks",
                            "type": "address"
                        }
                    ],
                    "internalType": "struct PoolKey",
                    "name": "key",
                    "type": "tuple"
                },
                {
                    "internalType": "uint256",
                    "name": "amount0",
                    "type": "uint256"
                },
                {
                    "internalType": "uint256",
                    "name": "amount1",
                    "type": "uint256"
                },
                {
                    "internalType": "bytes",
                    "name": "hookData",
                    "type": "bytes"
                }
            ],
            "name": "donate",
            "outputs": [
                {
                    "internalType": "BalanceDelta",
                    "name": "delta",
                    "type": "int256"
                }
            ],
            "stateMutability": "nonpayable",
            "type": "function"
        },
        {
            "inputs": [
                {
                    "internalType": "bytes32",
                    "name": "slot",
                    "type": "bytes32"
                }
            ],
            "name": "extsload",
            "outputs": [
                {
                    "internalType": "bytes32",
                    "name": "value",
                    "type": "bytes32"
                }
            ],
            "stateMutability": "view",
            "type": "function"
        },
        {
            "inputs": [
                {
                    "internalType": "bytes32",
                    "name": "startSlot",
                    "type": "bytes32"
                },
                {
                    "internalType": "uint256",
                    "name": "nSlots",
                    "type": "uint256"
                }
            ],
            "name": "extsload",
            "outputs": [
                {
                    "internalType": "bytes",
                    "name": "",
                    "type": "bytes"
                }
            ],
            "stateMutability": "view",
            "type": "function"
        },
        {
            "inputs": [
                {
                    "internalType": "PoolId",
                    "name": "id",
                    "type": "bytes32"
                },
                {
                    "internalType": "address",
                    "name": "_owner",
                    "type": "address"
                },
                {
                    "internalType": "int24",
                    "name": "tickLower",
                    "type": "int24"
                },
                {
                    "internalType": "int24",
                    "name": "tickUpper",
                    "type": "int24"
                }
            ],
            "name": "getLiquidity",
            "outputs": [
                {
                    "internalType": "uint128",
                    "name": "liquidity",
                    "type": "uint128"
                }
            ],
            "stateMutability": "view",
            "type": "function"
        },
        {
            "inputs": [
                {
                    "internalType": "PoolId",
                    "name": "id",
                    "type": "bytes32"
                }
            ],
            "name": "getLiquidity",
            "outputs": [
                {
                    "internalType": "uint128",
                    "name": "liquidity",
                    "type": "uint128"
                }
            ],
            "stateMutability": "view",
            "type": "function"
        },
        {
            "inputs": [
                {
                    "internalType": "uint256",
                    "name": "i",
                    "type": "uint256"
                }
            ],
            "name": "getLock",
            "outputs": [
                {
                    "internalType": "address",
                    "name": "locker",
                    "type": "address"
                }
            ],
            "stateMutability": "view",
            "type": "function"
        },
        {
            "inputs": [],
            "name": "getLockSentinel",
            "outputs": [
                {
                    "internalType": "LockSentinel",
                    "name": "sentinel",
                    "type": "uint256"
                }
            ],
            "stateMutability": "view",
            "type": "function"
        },
        {
            "inputs": [
                {
                    "internalType": "PoolId",
                    "name": "id",
                    "type": "bytes32"
                },
                {
                    "internalType": "address",
                    "name": "owner",
                    "type": "address"
                },
                {
                    "internalType": "int24",
                    "name": "tickLower",
                    "type": "int24"
                },
                {
                    "internalType": "int24",
                    "name": "tickUpper",
                    "type": "int24"
                }
            ],
            "name": "getPosition",
            "outputs": [
                {
                    "components": [
                        {
                            "internalType": "uint128",
                            "name": "liquidity",
                            "type": "uint128"
                        },
                        {
                            "internalType": "uint256",
                            "name": "feeGrowthInside0LastX128",
                            "type": "uint256"
                        },
                        {
                            "internalType": "uint256",
                            "name": "feeGrowthInside1LastX128",
                            "type": "uint256"
                        }
                    ],
                    "internalType": "struct Position.Info",
                    "name": "position",
                    "type": "tuple"
                }
            ],
            "stateMutability": "view",
            "type": "function"
        },
        {
            "inputs": [
                {
                    "internalType": "PoolId",
                    "name": "id",
                    "type": "bytes32"
                }
            ],
            "name": "getSlot0",
            "outputs": [
                {
                    "internalType": "uint160",
                    "name": "sqrtPriceX96",
                    "type": "uint160"
                },
                {
                    "internalType": "int24",
                    "name": "tick",
                    "type": "int24"
                },
                {
                    "internalType": "uint24",
                    "name": "protocolFees",
                    "type": "uint24"
                },
                {
                    "internalType": "uint24",
                    "name": "hookFees",
                    "type": "uint24"
                }
            ],
            "stateMutability": "view",
            "type": "function"
        },
        {
            "inputs": [
                {
                    "internalType": "address",
                    "name": "hookAddress",
                    "type": "address"
                },
                {
                    "internalType": "Currency",
                    "name": "currency",
                    "type": "address"
                }
            ],
            "name": "hookFeesAccrued",
            "outputs": [
                {
                    "internalType": "uint256",
                    "name": "",
                    "type": "uint256"
                }
            ],
            "stateMutability": "view",
            "type": "function"
        },
        {
            "inputs": [
                {
                    "components": [
                        {
                            "internalType": "Currency",
                            "name": "currency0",
                            "type": "address"
                        },
                        {
                            "internalType": "Currency",
                            "name": "currency1",
                            "type": "address"
                        },
                        {
                            "internalType": "uint24",
                            "name": "fee",
                            "type": "uint24"
                        },
                        {
                            "internalType": "int24",
                            "name": "tickSpacing",
                            "type": "int24"
                        },
                        {
                            "internalType": "contract IHooks",
                            "name": "hooks",
                            "type": "address"
                        }
                    ],
                    "internalType": "struct PoolKey",
                    "name": "key",
                    "type": "tuple"
                },
                {
                    "internalType": "uint160",
                    "name": "sqrtPriceX96",
                    "type": "uint160"
                },
                {
                    "internalType": "bytes",
                    "name": "hookData",
                    "type": "bytes"
                }
            ],
            "name": "initialize",
            "outputs": [
                {
                    "internalType": "int24",
                    "name": "tick",
                    "type": "int24"
                }
            ],
            "stateMutability": "nonpayable",
            "type": "function"
        },
        {
            "inputs": [
                {
                    "internalType": "address",
                    "name": "account",
                    "type": "address"
                },
                {
                    "internalType": "address",
                    "name": "operator",
                    "type": "address"
                }
            ],
            "name": "isApprovedForAll",
            "outputs": [
                {
                    "internalType": "bool",
                    "name": "",
                    "type": "bool"
                }
            ],
            "stateMutability": "view",
            "type": "function"
        },
        {
            "inputs": [
                {
                    "internalType": "bytes",
                    "name": "data",
                    "type": "bytes"
                }
            ],
            "name": "lock",
            "outputs": [
                {
                    "internalType": "bytes",
                    "name": "result",
                    "type": "bytes"
                }
            ],
            "stateMutability": "nonpayable",
            "type": "function"
        },
        {
            "inputs": [
                {
                    "internalType": "Currency",
                    "name": "currency",
                    "type": "address"
                },
                {
                    "internalType": "address",
                    "name": "to",
                    "type": "address"
                },
                {
                    "internalType": "uint256",
                    "name": "amount",
                    "type": "uint256"
                }
            ],
            "name": "mint",
            "outputs": [],
            "stateMutability": "nonpayable",
            "type": "function"
        },
        {
            "inputs": [
                {
                    "components": [
                        {
                            "internalType": "Currency",
                            "name": "currency0",
                            "type": "address"
                        },
                        {
                            "internalType": "Currency",
                            "name": "currency1",
                            "type": "address"
                        },
                        {
                            "internalType": "uint24",
                            "name": "fee",
                            "type": "uint24"
                        },
                        {
                            "internalType": "int24",
                            "name": "tickSpacing",
                            "type": "int24"
                        },
                        {
                            "internalType": "contract IHooks",
                            "name": "hooks",
                            "type": "address"
                        }
                    ],
                    "internalType": "struct PoolKey",
                    "name": "key",
                    "type": "tuple"
                },
                {
                    "components": [
                        {
                            "internalType": "int24",
                            "name": "tickLower",
                            "type": "int24"
                        },
                        {
                            "internalType": "int24",
                            "name": "tickUpper",
                            "type": "int24"
                        },
                        {
                            "internalType": "int256",
                            "name": "liquidityDelta",
                            "type": "int256"
                        }
                    ],
                    "internalType": "struct IPoolManager.ModifyPositionParams",
                    "name": "params",
                    "type": "tuple"
                },
                {
                    "internalType": "bytes",
                    "name": "hookData",
                    "type": "bytes"
                }
            ],
            "name": "modifyPosition",
            "outputs": [
                {
                    "internalType": "BalanceDelta",
                    "name": "delta",
                    "type": "int256"
                }
            ],
            "stateMutability": "nonpayable",
            "type": "function"
        },
        {
            "inputs": [
                {
                    "internalType": "address",
                    "name": "",
                    "type": "address"
                },
                {
                    "internalType": "address",
                    "name": "",
                    "type": "address"
                },
                {
                    "internalType": "uint256[]",
                    "name": "ids",
                    "type": "uint256[]"
                },
                {
                    "internalType": "uint256[]",
                    "name": "values",
                    "type": "uint256[]"
                },
                {
                    "internalType": "bytes",
                    "name": "",
                    "type": "bytes"
                }
            ],
            "name": "onERC1155BatchReceived",
            "outputs": [
                {
                    "internalType": "bytes4",
                    "name": "",
                    "type": "bytes4"
                }
            ],
            "stateMutability": "nonpayable",
            "type": "function"
        },
        {
            "inputs": [
                {
                    "internalType": "address",
                    "name": "",
                    "type": "address"
                },
                {
                    "internalType": "address",
                    "name": "",
                    "type": "address"
                },
                {
                    "internalType": "uint256",
                    "name": "id",
                    "type": "uint256"
                },
                {
                    "internalType": "uint256",
                    "name": "value",
                    "type": "uint256"
                },
                {
                    "internalType": "bytes",
                    "name": "",
                    "type": "bytes"
                }
            ],
            "name": "onERC1155Received",
            "outputs": [
                {
                    "internalType": "bytes4",
                    "name": "",
                    "type": "bytes4"
                }
            ],
            "stateMutability": "nonpayable",
            "type": "function"
        },
        {
            "inputs": [],
            "name": "owner",
            "outputs": [
                {
                    "internalType": "address",
                    "name": "",
                    "type": "address"
                }
            ],
            "stateMutability": "view",
            "type": "function"
        },
        {
            "inputs": [
                {
                    "internalType": "PoolId",
                    "name": "id",
                    "type": "bytes32"
                }
            ],
            "name": "pools",
            "outputs": [
                {
                    "components": [
                        {
                            "internalType": "uint160",
                            "name": "sqrtPriceX96",
                            "type": "uint160"
                        },
                        {
                            "internalType": "int24",
                            "name": "tick",
                            "type": "int24"
                        },
                        {
                            "internalType": "uint24",
                            "name": "protocolFees",
                            "type": "uint24"
                        },
                        {
                            "internalType": "uint24",
                            "name": "hookFees",
                            "type": "uint24"
                        }
                    ],
                    "internalType": "struct Pool.Slot0",
                    "name": "slot0",
                    "type": "tuple"
                },
                {
                    "internalType": "uint256",
                    "name": "feeGrowthGlobal0X128",
                    "type": "uint256"
                },
                {
                    "internalType": "uint256",
                    "name": "feeGrowthGlobal1X128",
                    "type": "uint256"
                },
                {
                    "internalType": "uint128",
                    "name": "liquidity",
                    "type": "uint128"
                }
            ],
            "stateMutability": "view",
            "type": "function"
        },
        {
            "inputs": [],
            "name": "protocolFeeController",
            "outputs": [
                {
                    "internalType": "contract IProtocolFeeController",
                    "name": "",
                    "type": "address"
                }
            ],
            "stateMutability": "view",
            "type": "function"
        },
        {
            "inputs": [
                {
                    "internalType": "Currency",
                    "name": "currency",
                    "type": "address"
                }
            ],
            "name": "protocolFeesAccrued",
            "outputs": [
                {
                    "internalType": "uint256",
                    "name": "",
                    "type": "uint256"
                }
            ],
            "stateMutability": "view",
            "type": "function"
        },
        {
            "inputs": [
                {
                    "internalType": "Currency",
                    "name": "currency",
                    "type": "address"
                }
            ],
            "name": "reservesOf",
            "outputs": [
                {
                    "internalType": "uint256",
                    "name": "",
                    "type": "uint256"
                }
            ],
            "stateMutability": "view",
            "type": "function"
        },
        {
            "inputs": [
                {
                    "internalType": "address",
                    "name": "from",
                    "type": "address"
                },
                {
                    "internalType": "address",
                    "name": "to",
                    "type": "address"
                },
                {
                    "internalType": "uint256[]",
                    "name": "ids",
                    "type": "uint256[]"
                },
                {
                    "internalType": "uint256[]",
                    "name": "amounts",
                    "type": "uint256[]"
                },
                {
                    "internalType": "bytes",
                    "name": "data",
                    "type": "bytes"
                }
            ],
            "name": "safeBatchTransferFrom",
            "outputs": [],
            "stateMutability": "nonpayable",
            "type": "function"
        },
        {
            "inputs": [
                {
                    "internalType": "address",
                    "name": "from",
                    "type": "address"
                },
                {
                    "internalType": "address",
                    "name": "to",
                    "type": "address"
                },
                {
                    "internalType": "uint256",
                    "name": "id",
                    "type": "uint256"
                },
                {
                    "internalType": "uint256",
                    "name": "amount",
                    "type": "uint256"
                },
                {
                    "internalType": "bytes",
                    "name": "data",
                    "type": "bytes"
                }
            ],
            "name": "safeTransferFrom",
            "outputs": [],
            "stateMutability": "nonpayable",
            "type": "function"
        },
        {
            "inputs": [
                {
                    "internalType": "address",
                    "name": "operator",
                    "type": "address"
                },
                {
                    "internalType": "bool",
                    "name": "approved",
                    "type": "bool"
                }
            ],
            "name": "setApprovalForAll",
            "outputs": [],
            "stateMutability": "nonpayable",
            "type": "function"
        },
        {
            "inputs": [
                {
                    "components": [
                        {
                            "internalType": "Currency",
                            "name": "currency0",
                            "type": "address"
                        },
                        {
                            "internalType": "Currency",
                            "name": "currency1",
                            "type": "address"
                        },
                        {
                            "internalType": "uint24",
                            "name": "fee",
                            "type": "uint24"
                        },
                        {
                            "internalType": "int24",
                            "name": "tickSpacing",
                            "type": "int24"
                        },
                        {
                            "internalType": "contract IHooks",
                            "name": "hooks",
                            "type": "address"
                        }
                    ],
                    "internalType": "struct PoolKey",
                    "name": "key",
                    "type": "tuple"
                }
            ],
            "name": "setHookFees",
            "outputs": [],
            "stateMutability": "nonpayable",
            "type": "function"
        },
        {
            "inputs": [
                {
                    "internalType": "address",
                    "name": "_owner",
                    "type": "address"
                }
            ],
            "name": "setOwner",
            "outputs": [],
            "stateMutability": "nonpayable",
            "type": "function"
        },
        {
            "inputs": [
                {
                    "internalType": "contract IProtocolFeeController",
                    "name": "controller",
                    "type": "address"
                }
            ],
            "name": "setProtocolFeeController",
            "outputs": [],
            "stateMutability": "nonpayable",
            "type": "function"
        },
        {
            "inputs": [
                {
                    "components": [
                        {
                            "internalType": "Currency",
                            "name": "currency0",
                            "type": "address"
                        },
                        {
                            "internalType": "Currency",
                            "name": "currency1",
                            "type": "address"
                        },
                        {
                            "internalType": "uint24",
                            "name": "fee",
                            "type": "uint24"
                        },
                        {
                            "internalType": "int24",
                            "name": "tickSpacing",
                            "type": "int24"
                        },
                        {
                            "internalType": "contract IHooks",
                            "name": "hooks",
                            "type": "address"
                        }
                    ],
                    "internalType": "struct PoolKey",
                    "name": "key",
                    "type": "tuple"
                }
            ],
            "name": "setProtocolFees",
            "outputs": [],
            "stateMutability": "nonpayable",
            "type": "function"
        },
        {
            "inputs": [
                {
                    "internalType": "Currency",
                    "name": "currency",
                    "type": "address"
                }
            ],
            "name": "settle",
            "outputs": [
                {
                    "internalType": "uint256",
                    "name": "paid",
                    "type": "uint256"
                }
            ],
            "stateMutability": "payable",
            "type": "function"
        },
        {
            "inputs": [
                {
                    "internalType": "bytes4",
                    "name": "interfaceId",
                    "type": "bytes4"
                }
            ],
            "name": "supportsInterface",
            "outputs": [
                {
                    "internalType": "bool",
                    "name": "",
                    "type": "bool"
                }
            ],
            "stateMutability": "view",
            "type": "function"
        },
        {
            "inputs": [
                {
                    "components": [
                        {
                            "internalType": "Currency",
                            "name": "currency0",
                            "type": "address"
                        },
                        {
                            "internalType": "Currency",
                            "name": "currency1",
                            "type": "address"
                        },
                        {
                            "internalType": "uint24",
                            "name": "fee",
                            "type": "uint24"
                        },
                        {
                            "internalType": "int24",
                            "name": "tickSpacing",
                            "type": "int24"
                        },
                        {
                            "internalType": "contract IHooks",
                            "name": "hooks",
                            "type": "address"
                        }
                    ],
                    "internalType": "struct PoolKey",
                    "name": "key",
                    "type": "tuple"
                },
                {
                    "components": [
                        {
                            "internalType": "bool",
                            "name": "zeroForOne",
                            "type": "bool"
                        },
                        {
                            "internalType": "int256",
                            "name": "amountSpecified",
                            "type": "int256"
                        },
                        {
                            "internalType": "uint160",
                            "name": "sqrtPriceLimitX96",
                            "type": "uint160"
                        }
                    ],
                    "internalType": "struct IPoolManager.SwapParams",
                    "name": "params",
                    "type": "tuple"
                },
                {
                    "internalType": "bytes",
                    "name": "hookData",
                    "type": "bytes"
                }
            ],
            "name": "swap",
            "outputs": [
                {
                    "internalType": "BalanceDelta",
                    "name": "delta",
                    "type": "int256"
                }
            ],
            "stateMutability": "nonpayable",
            "type": "function"
        },
        {
            "inputs": [
                {
                    "internalType": "Currency",
                    "name": "currency",
                    "type": "address"
                },
                {
                    "internalType": "address",
                    "name": "to",
                    "type": "address"
                },
                {
                    "internalType": "uint256",
                    "name": "amount",
                    "type": "uint256"
                }
            ],
            "name": "take",
            "outputs": [],
            "stateMutability": "nonpayable",
            "type": "function"
        },
        {
            "inputs": [
                {
                    "internalType": "uint256",
                    "name": "",
                    "type": "uint256"
                }
            ],
            "name": "uri",
            "outputs": [
                {
                    "internalType": "string",
                    "name": "",
                    "type": "string"
                }
            ],
            "stateMutability": "view",
            "type": "function"
        },
        {
            "stateMutability": "payable",
            "type": "receive"
        }
    ],
    "bytecode": {
        "object": "0x60c06040523480156200001157600080fd5b5060405162007546380380620075468339810160408190526200003491620000af565b60408051602081018252600080825280546001600160a01b0319163390811782559251919284929091907fb532073b38c83145e3e5135377a08bf9aab55bc0fd7c1179cd4fb995d2a5159c908290a36080523060a05262000095816200009d565b50506200023a565b6006620000ab82826200016e565b5050565b600060208284031215620000c257600080fd5b5051919050565b634e487b7160e01b600052604160045260246000fd5b600181811c90821680620000f457607f821691505b6020821081036200011557634e487b7160e01b600052602260045260246000fd5b50919050565b601f8211156200016957600081815260208120601f850160051c81016020861015620001445750805b601f850160051c820191505b81811015620001655782815560010162000150565b5050505b505050565b81516001600160401b038111156200018a576200018a620000c9565b620001a2816200019b8454620000df565b846200011b565b602080601f831160018114620001da5760008415620001c15750858301515b600019600386901b1c1916600185901b17855562000165565b600085815260208120601f198616915b828110156200020b57888601518255948401946001909101908401620001ea565b50858210156200022a5787850151600019600388901b60f8161c191681555b5050505050600190811b01905550565b60805160a0516172df62000267600039600061260801526000818161294601526129a901526172df6000f3fe6080604052600436106102d45760003560e01c80638161b87411610179578063bc197c81116100d6578063effd18c01161008a578063f242432a11610064578063f242432a14610ab9578063f3cd914c14610ad9578063fa6793d514610af957600080fd5b8063effd18c014610a59578063f02de3b214610a79578063f23a6e6114610a9957600080fd5b8063c815641c116100bb578063c815641c14610938578063d68f4dd1146109f0578063e985e9c514610a1057600080fd5b8063bc197c81146108df578063c6c3bbe61461091857600080fd5b8063a22cb4651161012d578063af440f8211610112578063af440f8214610790578063b4c41939146107b0578063b5217bb4146107e857600080fd5b8063a22cb46514610738578063a54b28311461075857600080fd5b80638da5cb5b1161015e5780638da5cb5b146106a657806393c85a21146106de57806397e8cd4e1461070b57600080fd5b80638161b8741461065f57806384e41c5e1461067f57600080fd5b8063282076cc116102325780634e1273f4116101e6578063695c5bf5116101c0578063695c5bf51461060c5780636a256b291461062c578063815483191461063f57600080fd5b80634e1273f4146105a957806360460f06146105d657806361ae449a146105ec57600080fd5b80632eb2c2d6116102175780632eb2c2d6146104c657806333aa955b146104e657806335fd631a1461058957600080fd5b8063282076cc146104865780632d771389146104a657600080fd5b80630e89341c11610289578063174a94981161026e578063174a9498146104255780631e2eaeaf14610447578063234266d71461046657600080fd5b80630e89341c146103d857806313af40351461040557600080fd5b8063048d9c70116102ba578063048d9c701461034357806307eff0dd1461038e5780630b0d9c09146103b657600080fd5b8062fdd58e146102e057806301ffc9a71461031357600080fd5b366102db57005b600080fd5b3480156102ec57600080fd5b506103006102fb366004615e96565b610b32565b6040519081526020015b60405180910390f35b34801561031f57600080fd5b5061033361032e366004615ed8565b610be0565b604051901515815260200161030a565b34801561034f57600080fd5b5061036361035e366004615f07565b610c30565b6040805182516001600160801b0316815260208084015190820152918101519082015260600161030a565b34801561039a57600080fd5b506103a3600181565b60405160029190910b815260200161030a565b3480156103c257600080fd5b506103d66103d1366004615f56565b610cf1565b005b3480156103e457600080fd5b506103f86103f3366004615f97565b610da3565b60405161030a9190616000565b34801561041157600080fd5b506103d6610420366004616013565b610e37565b34801561043157600080fd5b50600080516020617269833981519152b3610300565b34801561045357600080fd5b50610300610462366004615f97565b5490565b34801561047257600080fd5b5061030061048136600461618d565b610eca565b34801561049257600080fd5b506103d66104a13660046161f7565b6110cd565b3480156104b257600080fd5b506103d66104c1366004616013565b611140565b3480156104d257600080fd5b506103d66104e136600461632c565b6111cc565b3480156104f257600080fd5b50610571610501366004615f07565b6000938452600960209081526040808620815160609690961b6bffffffffffffffffffffffff19168684015260e894851b60348701529290931b60378501528251601a818603018152603a909401835283519381019390932084526006019091529020546001600160801b031690565b6040516001600160801b03909116815260200161030a565b34801561059557600080fd5b506103f86105a43660046163da565b61126e565b3480156105b557600080fd5b506105c96105c43660046163fc565b6112ee565b60405161030a9190616504565b3480156105e257600080fd5b506103a3617fff81565b3480156105f857600080fd5b50610300610607366004616517565b611424565b34801561061857600080fd5b506103a36106273660046165b8565b61180f565b61030061063a366004616013565b611b82565b34801561064b57600080fd5b506103f861065a366004616604565b611c44565b34801561066b57600080fd5b5061030061067a366004615f56565b611d34565b34801561068b57600080fd5b50610694600481565b60405160ff909116815260200161030a565b3480156106b257600080fd5b506000546106c6906001600160a01b031681565b6040516001600160a01b03909116815260200161030a565b3480156106ea57600080fd5b506103006106f9366004616013565b60086020526000908152604090205481565b34801561071757600080fd5b50610300610726366004616013565b60016020526000908152604090205481565b34801561074457600080fd5b506103d6610753366004616656565b611ded565b34801561076457600080fd5b5061030061077336600461668b565b600760209081526000928352604080842090915290825290205481565b34801561079c57600080fd5b506103d66107ab3660046161f7565b611dfc565b3480156107bc57600080fd5b506103006107cb36600461668b565b600260209081526000928352604080842090915290825290205481565b3480156107f457600080fd5b5061087c610803366004615f97565b600960209081526000918252604091829020825160808101845281546001600160a01b0381168252600160a01b8104600290810b9483019490945262ffffff600160b81b8204811695830195909552600160d01b900490931660608401526001810154918101546003909101546001600160801b031684565b6040805185516001600160a01b0316815260208087015160020b908201528582015162ffffff9081169282019290925260609586015190911694810194909452608084019290925260a08301526001600160801b031660c082015260e00161030a565b3480156108eb57600080fd5b506108ff6108fa366004616709565b611e66565b6040516001600160e01b0319909116815260200161030a565b34801561092457600080fd5b506103d6610933366004615f56565b611ef1565b34801561094457600080fd5b506109b8610953366004615f97565b600090815260096020908152604091829020825160808101845290546001600160a01b038116808352600160a01b820460020b93830184905262ffffff600160b81b83048116958401869052600160d01b909204909116606090920182905293919291565b604080516001600160a01b03909516855260029390930b602085015262ffffff9182169284019290925216606082015260800161030a565b3480156109fc57600080fd5b506106c6610a0b366004615f97565b611f7a565b348015610a1c57600080fd5b50610333610a2b36600461668b565b6001600160a01b03918216600090815260056020908152604080832093909416825291909152205460ff1690565b348015610a6557600080fd5b50610300610a74366004615f56565b611fa5565b348015610a8557600080fd5b506003546106c6906001600160a01b031681565b348015610aa557600080fd5b506108ff610ab43660046167c8565b61204a565b348015610ac557600080fd5b506103d6610ad4366004616844565b612089565b348015610ae557600080fd5b50610300610af43660046168ad565b612124565b348015610b0557600080fd5b50610571610b14366004615f97565b6000908152600960205260409020600301546001600160801b031690565b60006001600160a01b038316610bb55760405162461bcd60e51b815260206004820152602b60248201527f455243313135353a2062616c616e636520717565727920666f7220746865207a60448201527f65726f206164647265737300000000000000000000000000000000000000000060648201526084015b60405180910390fd5b5060008181526004602090815260408083206001600160a01b03861684529091529020545b92915050565b60006001600160e01b03198216636cdb3d1360e11b1480610c1157506001600160e01b031982166303a24d0760e21b145b80610bda57506301ffc9a760e01b6001600160e01b0319831614610bda565b610c5d604051806060016040528060006001600160801b0316815260200160008152602001600081525090565b600085815260096020908152604080832081516bffffffffffffffffffffffff1960608a901b168185015260e888811b603483015287901b60378201528251808203601a018152603a9091018352805190840120845260060190915290206040805160608101825282546001600160801b03168152600183015460208201526002909201549082015290505b949350505050565b610cf96125fd565b6000610d13600080516020617269833981519152b3612648565b9050336001600160a01b03821614610d49576040516313d2c13360e21b81526001600160a01b0382166004820152602401610bac565b610d5b84610d568461268c565b6126af565b6001600160a01b03841660009081526008602052604081208054849290610d8390849061694e565b90915550610d9d90506001600160a01b038516848461278d565b50505050565b606060068054610db290616961565b80601f0160208091040260200160405190810160405280929190818152602001828054610dde90616961565b8015610e2b5780601f10610e0057610100808354040283529160200191610e2b565b820191906000526020600020905b815481529060010190602001808311610e0e57829003601f168201915b50505050509050919050565b6000546001600160a01b03163314610e62576040516348f5c3ed60e01b815260040160405180910390fd5b600080546040516001600160a01b03808516939216917fb532073b38c83145e3e5135377a08bf9aab55bc0fd7c1179cd4fb995d2a5159c91a36000805473ffffffffffffffffffffffffffffffffffffffff19166001600160a01b0392909216919091179055565b6000610ed46125fd565b6000610eee600080516020617269833981519152b3612648565b9050336001600160a01b03821614610f24576040516313d2c13360e21b81526001600160a01b0382166004820152602401610bac565b60808701517302000000000000000000000000000000000000001615610feb576080870151604051635b54587d60e11b808252916001600160a01b03169063b6a8b0fa90610f809033908c908c908c908c908c906004016169c4565b6020604051808303816000875af1158015610f9f573d6000803e3d6000fd5b505050506040513d601f19601f82011682018060405250810190610fc39190616a44565b6001600160e01b03191614610feb57604051631e048e1d60e01b815260040160405180910390fd5b6110008686610ff98a612827565b919061284b565b915061100c878361290d565b6080870151600160981b16156110c357608087015160405163e1b4af6960e01b808252916001600160a01b03169063e1b4af69906110589033908c908c908c908c908c906004016169c4565b6020604051808303816000875af1158015611077573d6000803e3d6000fd5b505050506040513d601f19601f8201168201806040525081019061109b9190616a44565b6001600160e01b031916146110c357604051631e048e1d60e01b815260040160405180910390fd5b5095945050505050565b60006110d88261292c565b905060006110e583612a3a565b60008181526009602052604090209091506111009083612a6a565b60405162ffffff8316815281907fe9c42593e71f84403b84352cd168d693e2c9fcd1fdbcc3feb21d92b43e6696f9906020015b60405180910390a2505050565b6000546001600160a01b0316331461116b576040516348f5c3ed60e01b815260040160405180910390fd5b6003805473ffffffffffffffffffffffffffffffffffffffff19166001600160a01b0383169081179091556040519081527fb4bd8ef53df690b9943d3318996006dbb82a25f54719d8c8035b516a2a5b8acc9060200160405180910390a150565b6001600160a01b0385163314806111e857506111e88533610a2b565b61125a5760405162461bcd60e51b815260206004820152603260248201527f455243313135353a207472616e736665722063616c6c6572206973206e6f742060448201527f6f776e6572206e6f7220617070726f76656400000000000000000000000000006064820152608401610bac565b6112678585858585612acd565b5050505050565b6060600061127d836020616a61565b67ffffffffffffffff81111561129557611295616030565b6040519080825280601f01601f1916602001820160405280156112bf576020820181803683370190505b50905060005b838110156112e65780850154602060018301028301526001810190506112c5565b509392505050565b606081518351146113675760405162461bcd60e51b815260206004820152602960248201527f455243313135353a206163636f756e747320616e6420696473206c656e67746860448201527f206d69736d6174636800000000000000000000000000000000000000000000006064820152608401610bac565b6000835167ffffffffffffffff81111561138357611383616030565b6040519080825280602002602001820160405280156113ac578160200160208202803683370190505b50905060005b84518110156112e6576113f78582815181106113d0576113d0616a78565b60200260200101518583815181106113ea576113ea616a78565b6020026020010151610b32565b82828151811061140957611409616a78565b602090810291909101015261141d81616a8e565b90506113b2565b600061142e6125fd565b6000611448600080516020617269833981519152b3612648565b9050336001600160a01b0382161461147e576040516313d2c13360e21b81526001600160a01b0382166004820152602401610bac565b6080860151732000000000000000000000000000000000000000161561154357608086015160405163fe9a6f4560e01b808252916001600160a01b03169063fe9a6f45906114d89033908b908b908b908b90600401616aa7565b6020604051808303816000875af11580156114f7573d6000803e3d6000fd5b505050506040513d601f19601f8201168201806040525081019061151b9190616a44565b6001600160e01b0319161461154357604051631e048e1d60e01b815260040160405180910390fd5b600061154e87612a3a565b905061157b6040518060800160405280600081526020016000815260200160008152602001600081525090565b6115e66040518060a00160405280336001600160a01b03168152602001896000015160020b8152602001896020015160020b81526020016115bf8a60400151612d43565b600f0b815260608b015160020b602091820152600085815260099091526040902090612d59565b90945090506115f5888561290d565b80511561161f57805188516001600160a01b03166000908152600160205260409020805490910190555b60208101511561165357602080820151898201516001600160a01b0316600090815260019092526040909120805490910190555b6040810151156116995760408082015160808a01516001600160a01b039081166000908152600260209081528482208d5190931682529190915291909120805490910190555b6060810151156116de57606081015160808901516001600160a01b039081166000908152600260209081526040808320828e0151909416835292905220805490910190555b608088015173100000000000000000000000000000000000000016156117a55760808801516040516330b7cdef60e01b808252916001600160a01b0316906330b7cdef9061173a9033908d908d908b908e908e90600401616b4b565b6020604051808303816000875af1158015611759573d6000803e3d6000fd5b505050506040513d601f19601f8201168201806040525081019061177d9190616a44565b6001600160e01b031916146117a557604051631e048e1d60e01b815260040160405180910390fd5b865160208801516040808a01519051339386937fc54f65a0367b92850ef8e90f7e302da8b0a137ab343132a9b8d0e63e684bf53c936117fc93600293840b81529190920b6020820152604081019190915260600190565b60405180910390a3505050949350505050565b6040840151600090620f4240620fffff9091161061184057604051637e2df70960e11b815260040160405180910390fd5b6060850151617fff60029190910b131561186d57604051635815aee160e11b815260040160405180910390fd5b600160020b856060015160020b121561189957604051630b7f3b4b60e11b815260040160405180910390fd5b845160208601516001600160a01b03908116911611156118cc576040516305a25e7160e11b815260040160405180910390fd5b6118f0856040015186608001516001600160a01b03166132ac90919063ffffffff16565b61191e576080850151604051630732d7b560e51b81526001600160a01b039091166004820152602401610bac565b608085015173800000000000000000000000000000000000000016156119e35760808501516040516301a206c160e51b808252916001600160a01b031690633440d820906119789033908a908a908a908a90600401616bea565b6020604051808303816000875af1158015611997573d6000803e3d6000fd5b505050506040513d601f19601f820116820180604052508101906119bb9190616a44565b6001600160e01b031916146119e357604051631e048e1d60e01b815260040160405180910390fd5b60006119ee86612a3a565b905060006119fb8761292c565b90506000611a088861332d565b6000848152600960205260409020909150611a2590888484613400565b60808901519094507340000000000000000000000000000000000000001615611aef57608088015160405163a910f80f60e01b808252916001600160a01b03169063a910f80f90611a849033908d908d908b908e908e90600401616c66565b6020604051808303816000875af1158015611aa3573d6000803e3d6000fd5b505050506040513d601f19601f82011682018060405250810190611ac79190616a44565b6001600160e01b03191614611aef57604051631e048e1d60e01b815260040160405180910390fd5b87602001516001600160a01b031688600001516001600160a01b0316847f3fd553db44f207b1f41348cfc4d251860814af9eadc470e8e7895e4d120511f48b604001518c606001518d60800151604051611b6f9392919062ffffff93909316835260029190910b60208301526001600160a01b0316604082015260600190565b60405180910390a4505050949350505050565b6000611b8c6125fd565b6000611ba6600080516020617269833981519152b3612648565b9050336001600160a01b03821614611bdc576040516313d2c13360e21b81526001600160a01b0382166004820152602401610bac565b6001600160a01b03831660008181526008602052604090205490611bff906134e9565b6001600160a01b0385166000908152600860205260409020819055611c2590829061694e565b9250611c3d84611c348561268c565b610d5690616ced565b5050919050565b6060600080516020617269833981519152b3611c608133613568565b6040516355b148ff60e11b8152339063ab6291fe90611c859087908790600401616d1c565b6000604051808303816000875af1158015611ca4573d6000803e3d6000fd5b505050506040513d6000823e601f3d908101601f19168201604052611ccc9190810190616d30565b915050600080516020617269833981519152b3608081901c600103611d2457806001600160801b031615611d1357604051635212cba160e01b815260040160405180910390fd5b611d1f816000806135af565b611d2d565b611d2d816135d9565b5092915050565b600080546001600160a01b03163314801590611d5b57506003546001600160a01b03163314155b15611d79576040516348f5c3ed60e01b815260040160405180910390fd5b8115611d855781611d9f565b6001600160a01b0383166000908152600160205260409020545b6001600160a01b038416600090815260016020526040812080549293508392909190611dcc90849061694e565b90915550611de690506001600160a01b038416858361278d565b9392505050565b611df83383836135f6565b5050565b6000611e078261332d565b90506000611e1483612a3a565b6000818152600960205260409020909150611e2f90836136ea565b60405162ffffff8316815281907fc939c5b4f4e3398eb275de825cd913cca3ade8d1f42daa0ffe1d88accd40715890602001611133565b6000333014611e88576040516314fe96b960e21b815260040160405180910390fd5b60005b86811015611edb57611ed3611eb5898984818110611eab57611eab616a78565b9050602002013590565b878784818110611ec757611ec7616a78565b90506020020135613734565b600101611e8b565b5063bc197c8160e01b9998505050505050505050565b611ef96125fd565b6000611f13600080516020617269833981519152b3612648565b9050336001600160a01b03821614611f49576040516313d2c13360e21b81526001600160a01b0382166004820152602401610bac565b611f5684610d568461268c565b610d9d836001600160a01b0386168460405180602001604052806000815250613755565b60007f760a9a962ae3d184e99c0483cf5684fb3170f47116ca4f445c50209da4f4f9068201b3610bda565b6000338215611fb45782611fdb565b6001600160a01b038082166000908152600260209081526040808320938816835292905220545b91506001600160a01b03851615611ff25784611ff4565b805b6001600160a01b03808316600090815260026020908152604080832093891683529290529081208054929750849290919061203090849061694e565b909155506112e690506001600160a01b038516868461278d565b600033301461206c576040516314fe96b960e21b815260040160405180910390fd5b6120768585613734565b5063f23a6e6160e01b9695505050505050565b6001600160a01b0385163314806120a557506120a58533610a2b565b6121175760405162461bcd60e51b815260206004820152602960248201527f455243313135353a2063616c6c6572206973206e6f74206f776e6572206e6f7260448201527f20617070726f76656400000000000000000000000000000000000000000000006064820152608401610bac565b6112678585858585613861565b600061212e6125fd565b6000612148600080516020617269833981519152b3612648565b9050336001600160a01b0382161461217e576040516313d2c13360e21b81526001600160a01b0382166004820152602401610bac565b608086015173080000000000000000000000000000000000000016156122435760808601516040516315d7892d60e21b808252916001600160a01b03169063575e24b4906121d89033908b908b908b908b90600401616db2565b6020604051808303816000875af11580156121f7573d6000803e3d6000fd5b505050506040513d601f19601f8201168201806040525081019061221b9190616a44565b6001600160e01b0319161461224357604051631e048e1d60e01b815260040160405180910390fd5b60408601516000906280000016156122ff5786608001516001600160a01b0316632ab7a3e233898989896040518663ffffffff1660e01b815260040161228d959493929190616db2565b6020604051808303816000875af11580156122ac573d6000803e3d6000fd5b505050506040513d601f19601f820116820180604052508101906122d09190616e3e565b9050620f42408162ffffff16106122fa57604051637e2df70960e11b815260040160405180910390fd5b61230b565b506040860151620fffff165b6040805160c081018252600080825260208201819052918101829052606081018290526080810182905260a08101829052819060006123498b612a3a565b90506123b96040518060a001604052808762ffffff1681526020018d6060015160020b81526020018c60000151151581526020018c6020015181526020018c604001516001600160a01b031681525060096000848152602001908152602001600020613a0390919063ffffffff16565b929950909550935091506123cd8b8861290d565b831561240f5783600160008c600001516123eb578d602001516123ee565b8d515b6001600160a01b031681526020810191909152604001600020805490910190555b82156124685760808b01516001600160a01b031660009081526002602052604081208b51859290612444578d60200151612447565b8d515b6001600160a01b031681526020810191909152604001600020805490910190555b60808b015173040000000000000000000000000000000000000016156125545763b47b2fb160e01b7bffffffffffffffffffffffffffffffffffffffffffffffffffffffff19168b608001516001600160a01b031663b47b2fb1338e8e8c8f8f6040518763ffffffff1660e01b81526004016124e996959493929190616e5b565b6020604051808303816000875af1158015612508573d6000803e3d6000fd5b505050506040513d601f19601f8201168201806040525081019061252c9190616a44565b6001600160e01b0319161461255457604051631e048e1d60e01b815260040160405180910390fd5b33817f40e9cecb9f5f1f1c5b9c97dec2917b7ee92e57ba5563708daca94dd84ad7112f6125818a60801c90565b8a60408088015160a089015160608a015192516125e7959493908e90600f96870b81529490950b60208501526001600160a01b039290921660408401526001600160801b0316606083015260020b608082015262ffffff9190911660a082015260c00190565b60405180910390a3505050505050949350505050565b306001600160a01b037f00000000000000000000000000000000000000000000000000000000000000001614612646576040516306c4a1c760e11b815260040160405180910390fd5b565b60008060016126578460801c90565b0390507f760a9a962ae3d184e99c0483cf5684fb3170f47116ca4f445c50209da4f4f9066001600160801b03821601b3611de6565b60006f7fffffffffffffffffffffffffffffff8211156126ab57600080fd5b5090565b80600f0b6000036126be575050565b600080516020617269833981519152b360006126d982612648565b6001600160a01b038082166000908152600760209081526040808320938916835292905290812054919250612712600f86900b83616ee7565b905083600082900361273c5761273761272b8660801c90565b869060001984016135af565b61275c565b8260000361275c5761275c6127518660801c90565b8690600184016135af565b506001600160a01b039283166000908152600760209081526040808320989095168252969096529190942055505050565b60006001600160a01b0384166127cc5760008060008085875af19050806127c757604051633d2cec6f60e21b815260040160405180910390fd5b610d9d565b60405163a9059cbb60e01b6000528360045282602452602060006044600080895af13d15601f3d1160016000511416171691506000606052806040525080610d9d57604051633c9fd93960e21b815260040160405180910390fd5b60006009600061283684612a3a565b81526020019081526020016000209050919050565b60038301546000906001600160801b0316810361287b5760405163a74f97ab60e01b815260040160405180910390fd5b6128a36128878461268c565b6128908461268c565b6001600160801b031660809190911b1790565b905082156128d65760038401546128ca908490600160801b906001600160801b03166142d4565b60018501805490910190555b8115611de65760038401546128fb908390600160801b906001600160801b03166142d4565b60028501805490910190559392505050565b815161291d90610d568360801c90565b611df88260200151610d568390565b600354600090819081906001600160a01b031615611c3d577f00000000000000000000000000000000000000000000000000000000000000005a101561298557604051630f724b8160e11b815260040160405180910390fd5b60035460405163d6ec458560e01b81526001600160a01b039091169063d6ec4585907f0000000000000000000000000000000000000000000000000000000000000000906129d7908890600401616f0f565b6020604051808303818786fa93505050508015612a11575060408051601f3d908101601f19168201909252612a0e91810190616e3e565b60015b15612a2857925050610fff600c83901c8116915082165b612a3182614376565b611c3d81614376565b600081604051602001612a4d9190616f0f565b604051602081830303815290604052805190602001209050919050565b81546001600160a01b0316600003612a955760405163486aa30760e01b815260040160405180910390fd5b815462ffffff909116600160b81b027fffffffffffff000000ffffffffffffffffffffffffffffffffffffffffffffff909116179055565b8151835114612b445760405162461bcd60e51b815260206004820152602860248201527f455243313135353a2069647320616e6420616d6f756e7473206c656e6774682060448201527f6d69736d617463680000000000000000000000000000000000000000000000006064820152608401610bac565b6001600160a01b038416612ba85760405162461bcd60e51b815260206004820152602560248201527f455243313135353a207472616e7366657220746f20746865207a65726f206164604482015264647265737360d81b6064820152608401610bac565b3360005b8451811015612cd5576000858281518110612bc957612bc9616a78565b602002602001015190506000858381518110612be757612be7616a78565b60209081029190910181015160008481526004835260408082206001600160a01b038e168352909352919091205490915081811015612c7b5760405162461bcd60e51b815260206004820152602a60248201527f455243313135353a20696e73756666696369656e742062616c616e636520666f60448201526939103a3930b739b332b960b11b6064820152608401610bac565b60008381526004602090815260408083206001600160a01b038e8116855292528083208585039055908b16825281208054849290612cba908490616f5f565b9250508190555050505080612cce90616a8e565b9050612bac565b50846001600160a01b0316866001600160a01b0316826001600160a01b03167f4a39dc06d4c0dbc64b70af90fd698a233a518aa5d07e595d983b8c0526c8f7fb8787604051612d25929190616f72565b60405180910390a4612d3b8187878787876143f0565b505050505050565b80600f81900b8114612d5457600080fd5b919050565b6000612d866040518060800160405280600081526020016000815260200160008152602001600081525090565b83546001600160a01b0316600003612db15760405163486aa30760e01b815260040160405180910390fd5b612dc383602001518460400151614595565b6040805160c081018252600080825260208201819052918101829052606081018290526080810182905260a0810182905281906060860151600f0b15612f4657612e1887876020015188606001516000614631565b6001600160801b031660208301521515815260408601516060870151612e419189916001614631565b6001600160801b031660608084019190915290151560408301528601516000600f9190910b1315612f05576000612e7b876080015161470b565b9050806001600160801b031682602001516001600160801b03161115612ec057602087015160405163b8e3c38560e01b815260029190910b6004820152602401610bac565b806001600160801b031682606001516001600160801b03161115612f0357604080880151905163b8e3c38560e01b815260029190910b6004820152602401610bac565b505b805115612f245760208601516080870151612f249160058a0191614739565b806040015115612f465760408601516080870151612f469160058a0191614739565b612f5987876020015188604001516147d8565b60a0830181905260808301829052606088810151895160208b8101516040808e015181519490961b6bffffffffffffffffffffffff19168484015260e891821b603485015294901b60378301528351601a818403018152603a9092018452815191810191909120600090815260068d0190915291909120612fdb93909261488f565b809350819450505060008660600151600f0b12156130585780511561302757613027878760200151600290810b6000908152600490920160205260408220828155600181018390550155565b80604001511561305857604080870151600290810b600090815260048a016020529182208281556001810183905501555b506060850151600f0b156131fe5760208501518654600291820b600160a01b90910490910b12156130cb576130c4846130bf6130b96130b461309d8a602001516149c1565b6130aa8b604001516149c1565b8b60600151614ce4565b612d43565b60801b90565b614d23565b93506131fe565b60408501518654600291820b600160a01b90910490910b12156131c8578554604086015161313f9186916130bf91613114916130b4916001600160a01b0316906130aa906149c1565b6128906130b46131278b602001516149c1565b8c5460608d01516001600160a01b0390911690614d4d565b935060008560600151600f0b12613172576060850151600387015461316d91906001600160801b0316616f97565b613198565b846060015161318090616ced565b600387015461319891906001600160801b0316616fb7565b6003870180546fffffffffffffffffffffffffffffffff19166001600160801b03929092169190911790556131fe565b6131fb846130bf60006128906130b46131e48b602001516149c1565b6131f18c604001516149c1565b8c60600151614d4d565b93505b60008560600151600f0b12801561322057508554600160d01b9004610fff1615155b156132835761322f8685614d7c565b9250613280846130bf613245866000015161268c565b613252876040015161268c565b61325c9190616fd7565b613269876020015161268c565b613276886060015161268c565b6128909190616fd7565b93505b6132a18461329c6132938561268c565b6128908561268c565b614f68565b935050509250929050565b60006001600160a01b0383161561330457600160981b836001600160a01b03161015806132dd575062800000821615155b806132ec575062400000821615155b806132ff57506220000082161515611de6565b611de6565b62800000821615801561331a5750624000008216155b8015611de6575050622000001615919050565b60808101516000906001600160a01b031615612d545781608001516001600160a01b0316635ae4ce58836040518263ffffffff1660e01b81526004016133739190616f0f565b602060405180830381865afa9250505080156133ac575060408051601f3d908101601f191682019092526133a991810190616e3e565b60015b15612d5457604083015160009062400000166133c95760006133ce565b62fff0005b604085015190915060009062200000166133e95760006133ed565b610fff5b61ffff1691909117919091169392505050565b83546000906001600160a01b03161561342c57604051637983c05160e01b815260040160405180910390fd5b61343584614f95565b604080516080810182526001600160a01b0396909616808752600283900b602088015262ffffff9586169187018290529385166060909601869052865476ffffffffffffffffffffffffffffffffffffffffffffff1916909317600160a01b94821694909402939093177fffffff000000000000ffffffffffffffffffffffffffffffffffffffffffffff16600160b81b90920262ffffff60d01b191691909117600160d01b909302929092179092555090565b60006001600160a01b038216613500575047919050565b6040516370a0823160e01b81523060048201526001600160a01b038316906370a0823190602401602060405180830381865afa158015613544573d6000803e3d6000fd5b505050506040513d601f19601f82011682018060405250810190610bda9190617016565b60006135748360801c90565b90507f760a9a962ae3d184e99c0483cf5684fb3170f47116ca4f445c50209da4f4f9066001600160801b038216018281b4610d9d8460018401815b608082901b6001600160801b0382161792506000805160206172698339815191528381b450505050565b60006135e58260801c90565b9050611df8826000198301816135af565b816001600160a01b0316836001600160a01b03160361367d5760405162461bcd60e51b815260206004820152602960248201527f455243313135353a2073657474696e6720617070726f76616c2073746174757360448201527f20666f722073656c6600000000000000000000000000000000000000000000006064820152608401610bac565b6001600160a01b03838116600081815260056020908152604080832094871680845294825291829020805460ff191686151590811790915591519182527f17307eab39ab6107e8899845ad3d59bd9653f200f220920489ca2b5937696c31910160405180910390a3505050565b81546001600160a01b03166000036137155760405163486aa30760e01b815260040160405180910390fd5b815462ffffff909116600160d01b0262ffffff60d01b19909116179055565b613748306001600160a01b038416836152a8565b611df882611c348361268c565b6001600160a01b0384166137b55760405162461bcd60e51b815260206004820152602160248201527f455243313135353a206d696e7420746f20746865207a65726f206164647265736044820152607360f81b6064820152608401610bac565b336137cf816000876137c688615426565b61126788615426565b60008481526004602090815260408083206001600160a01b038916845290915281208054859290613801908490616f5f565b909155505060408051858152602081018590526001600160a01b0380881692600092918516917fc3d58168c5ae7397731d063d5bbf3d657854427343f4c083240f7aacaa2d0f62910160405180910390a461126781600087878787615471565b6001600160a01b0384166138c55760405162461bcd60e51b815260206004820152602560248201527f455243313135353a207472616e7366657220746f20746865207a65726f206164604482015264647265737360d81b6064820152608401610bac565b336138d58187876137c688615426565b60008481526004602090815260408083206001600160a01b038a1684529091529020548381101561395b5760405162461bcd60e51b815260206004820152602a60248201527f455243313135353a20696e73756666696369656e742062616c616e636520666f60448201526939103a3930b739b332b960b11b6064820152608401610bac565b60008581526004602090815260408083206001600160a01b038b811685529252808320878503905590881682528120805486929061399a908490616f5f565b909155505060408051868152602081018690526001600160a01b03808916928a821692918616917fc3d58168c5ae7397731d063d5bbf3d657854427343f4c083240f7aacaa2d0f62910160405180910390a46139fa828888888888615471565b50505050505050565b6040805160c081018252600080825260208201819052918101829052606081018290526080810182905260a08101829052819081908460600151600003613a5d5760405163be8b850760e01b815260040160405180910390fd5b6040805160808101825287546001600160a01b038116808352600160a01b820460020b602084015262ffffff600160b81b8304811694840194909452600160d01b909104909216606082015290600003613aca5760405163486aa30760e01b815260040160405180910390fd5b856040015115613b795780600001516001600160a01b031686608001516001600160a01b031610613b285780516080870151604051637c9c6e8f60e01b81526001600160a01b03928316600482015291166024820152604401610bac565b6401000276a36001600160a01b031686608001516001600160a01b031611613b74576080860151604051639e4d7cc760e01b81526001600160a01b039091166004820152602401610bac565b613c28565b80600001516001600160a01b031686608001516001600160a01b031611613bcd5780516080870151604051637c9c6e8f60e01b81526001600160a01b03928316600482015291166024820152604401610bac565b73fffd8963efd1fc6a506488495d951d5263988d266001600160a01b031686608001516001600160a01b031610613c28576080860151604051639e4d7cc760e01b81526001600160a01b039091166004820152602401610bac565b6040805160608101825260038901546001600160801b0316815290870151600091906020820190613c6357604084015160121c603f16613c7a565b604084810151600c1c610fff16613c7a9190617045565b61ffff1681526020018860400151613c9c57606084015160121c603f16613cb5565b6060840151604090600c1c610fff16613cb59190617045565b61ffff16815250905060008088606001511390506040518060c00160405280896060015181526020016000815260200184600001516001600160a01b03168152602001846020015160020b81526020018960400151613d18578a60020154613d1e565b8a600101545b815283516001600160801b03166020918201526040805160e0810182526000808252928101839052908101829052606081018290526080810182905260a0810182905260c08101919091529094505b845115801590613d97575088608001516001600160a01b031685604001516001600160a01b031614155b1561419f576040808601516001600160a01b03168252606086015160208b0151918b0151613dca9260058e01929161556d565b1515604083015260020b60208201819052620d89e7191315613df557620d89e7196020820152613e29565b613e02620d89e719617066565b60020b816020015160020b1315613e2957613e20620d89e719617066565b60020b60208201525b613e3681602001516149c1565b6001600160a01b03166060820152604080860151908a0151613eb99190613e79578a608001516001600160a01b031683606001516001600160a01b031611613e97565b8a608001516001600160a01b031683606001516001600160a01b0316105b613ea5578260600151613eab565b8a608001515b60a088015188518d516156af565b60c085015260a084015260808301526001600160a01b031660408601528115613f1b57613eef8160c001518260800151016158a1565b855103855260a0810151613f02906158a1565b8560200151613f11919061707f565b6020860152613f5e565b613f288160a001516158a1565b855101855260c08101516080820151613f4991613f4491616f5f565b6158a1565b8560200151613f589190616ee7565b60208601525b602083015161ffff1615613f98576000836020015161ffff168260c00151613f86919061709f565b60c08301805182900390529790970196505b604083015161ffff1615613fd2576000836040015161ffff168260c00151613fc0919061709f565b60c08301805182900390529690960195505b60a08501516001600160801b031615614011576140058160c00151600160801b8760a001516001600160801b03166142d4565b60808601805190910190525b80606001516001600160a01b031685604001516001600160a01b03160361416c578060400151156141435760006140eb8b83602001518c6040015161405a578d60010154614060565b88608001515b8d604001516140aa578960800151600292830b600090815260049094016020526040909320600181018054909203909155908101805490920390915554600160801b9004600f0b90565b8e60020154600292830b600090815260049094016020526040909320600181018054909203909155908101805490920390915554600160801b9004600f0b90565b90508960400151156140fb576000035b600081600f0b1261411b57808660a001516141169190616f97565b614133565b61412481616ced565b8660a001516141339190616fb7565b6001600160801b031660a0870152505b886040015161415657806020015161415f565b60018160200151035b60020b6060860152613d6d565b80600001516001600160a01b031685604001516001600160a01b03161461419a5761415f8560400151614f95565b613d6d565b604085015160608601518b5476ffffffffffffffffffffffffffffffffffffffffffffff1916600160a01b62ffffff9092169190910273ffffffffffffffffffffffffffffffffffffffff1916176001600160a01b03909116178a5560a085015183516001600160801b039182169116146142445760a085015160038b0180546fffffffffffffffffffffffffffffffff19166001600160801b039092169190911790555b88604001511561425d57608085015160018b0155614268565b608085015160028b01555b81151589604001511515036142a15761429a61428d86600001518b6060015103612d43565b6128908760200151612d43565b97506142c7565b6142c46142b18660200151612d43565b61289087600001518c6060015103612d43565b97505b5050505092959194509250565b600083830281600019858709828110838203039150508084116142f657600080fd5b8060000361430957508290049050611de6565b6000848688096000868103871696879004966002600389028118808a02820302808a02820302808a02820302808a02820302808a02820302808a02909103029181900381900460010186841190950394909402919094039290920491909117919091029150509392505050565b61ffff8116156143ed57600061438d604083617045565b90506103ff600683901c1661ffff8216158015906143af5750600461ffff8316105b806143cc575061ffff8116158015906143cc5750600461ffff8216105b156143ea57604051637e2df70960e11b815260040160405180910390fd5b50505b50565b6001600160a01b0384163b15612d3b5760405163bc197c8160e01b81526001600160a01b0385169063bc197c819061443490899089908890889088906004016170b3565b6020604051808303816000875af192505050801561446f575060408051601f3d908101601f1916820190925261446c91810190616a44565b60015b6145245761447b617105565b806308c379a0036144b4575061448f617121565b8061449a57506144b6565b8060405162461bcd60e51b8152600401610bac9190616000565b505b60405162461bcd60e51b815260206004820152603460248201527f455243313135353a207472616e7366657220746f206e6f6e204552433131353560448201527f526563656976657220696d706c656d656e7465720000000000000000000000006064820152608401610bac565b6001600160e01b0319811663bc197c8160e01b146139fa5760405162461bcd60e51b815260206004820152602860248201527f455243313135353a204552433131353552656365697665722072656a656374656044820152676420746f6b656e7360c01b6064820152608401610bac565b8060020b8260020b126145c95760405163c4433ed560e01b8152600283810b600483015282900b6024820152604401610bac565b620d89e719600283900b12156145f85760405163d5e2f7ab60e01b8152600283900b6004820152602401610bac565b614605620d89e719617066565b60020b8160020b1315611df85760405163035aeeff60e31b8152600282900b6004820152602401610bac565b600283900b6000908152600485016020526040812080548291906001600160801b0381169060801c600f87900b84136146735761466e8783616f97565b614686565b61467c87616ced565b6146869083616fb7565b6001600160801b03808216159084168015919091141596509094506000036146d4578854600160a01b9004600290810b9089900b136146d4576001808a0154908401556002808a0154908401555b6000866146ea576146e58883616fd7565b6146f4565b6146f488836171ab565b90508060801b851784555050505094509492505050565b6000621b13d08201600290810b9083900b6001600160801b0302816147325761473261702f565b0492915050565b8060020b8260020b8161474e5761474e61702f565b0760020b1561477e57604051636a6c79f360e11b8152600283810b600483015282900b6024820152604401610bac565b6000806147ac8360020b8560020b816147995761479961702f565b0560020b600881901d9161010090910790565b600191820b60009081526020979097526040909620805460ff9097169190911b90951890945550505050565b600282810b600081815260048601602052604080822085850b835290822087549294859492939192600160a01b909204900b90811215614831578160010154836001015403945081600201548360020154039350614884565b8560020b8160020b1261485d578260010154826001015403945082600201548260020154039350614884565b81600101548360010154896001015403039450816002015483600201548960020154030393505b505050935093915050565b6040805160608101825285546001600160801b0316815260018601546020820152600286015491810191909152600090819081600f87900b81036149005781516001600160801b03166000036148f857604051632bbfae4960e21b815260040160405180910390fd5b508051614935565b600087600f0b1261491d578151614918908890616f97565b614932565b61492687616ced565b82516149329190616fb7565b90505b6149578260200151870383600001516001600160801b0316600160801b6142d4565b935061497b8260400151860383600001516001600160801b0316600160801b6142d4565b925086600f0b6000146149ab5787546fffffffffffffffffffffffffffffffff19166001600160801b0382161788555b5050600186019390935560029094015591929050565b60008060008360020b126149d8578260020b6149e0565b8260020b6000035b9050620d89e8811115614a06576040516333a3bdff60e21b815260040160405180910390fd5b600081600116600003614a1d57600160801b614a2f565b6ffffcb933bd6fad37aa2d162d1a5940015b70ffffffffffffffffffffffffffffffffff1690506002821615614a63576ffff97272373d413259a46990580e213a0260801c5b6004821615614a82576ffff2e50f5f656932ef12357cf3c7fdcc0260801c5b6008821615614aa1576fffe5caca7e10e4e61c3624eaa0941cd00260801c5b6010821615614ac0576fffcb9843d60f6159c9db58835c9266440260801c5b6020821615614adf576fff973b41fa98c081472e6896dfb254c00260801c5b6040821615614afe576fff2ea16466c96a3843ec78b326b528610260801c5b6080821615614b1d576ffe5dee046a99a2a811c461f1969c30530260801c5b610100821615614b3d576ffcbe86c7900a88aedcffc83b479aa3a40260801c5b610200821615614b5d576ff987a7253ac413176f2b074cf7815e540260801c5b610400821615614b7d576ff3392b0822b70005940c7a398e4b70f30260801c5b610800821615614b9d576fe7159475a2c29b7443b29c7fa6e889d90260801c5b611000821615614bbd576fd097f3bdfd2022b8845ad8f792aa58250260801c5b612000821615614bdd576fa9f746462d870fdf8a65dc1f90e061e50260801c5b614000821615614bfd576f70d869a156d2a1b890bb3df62baf32f70260801c5b618000821615614c1d576f31be135f97d08fd981231505542fcfa60260801c5b62010000821615614c3e576f09aa508b5b7a84e1c677de54f3e99bc90260801c5b62020000821615614c5e576e5d6af8dedb81196699c329225ee6040260801c5b62040000821615614c7d576d2216e584f5fa1ea926041bedfe980260801c5b62080000821615614c9a576b048a170391f7dc42444e8fa20260801c5b60008460020b1315614cbb578060001981614cb757614cb761702f565b0490505b640100000000810615614ccf576001614cd2565b60005b60ff16602082901c0192505050919050565b60008082600f0b12614d0557614d00613f4485858560016158d0565b610ce9565b614d18613f4485858560000360006158d0565b600003949350505050565b6000611de6614d328360801c90565b614d3c8560801c90565b614d469190616fd7565b8385613276565b60008082600f0b12614d6957614d00613f448585856001615999565b614d18613f448585856000036000615999565b614da76040518060800160405280600081526020016000815260200160008152602001600081525090565b6000614db38360801c90565b6040805160808101825286546001600160a01b0381168252600160a01b810460020b602083015262ffffff600160b81b82048116838501819052600160d01b9092049081166060840181905294955087949293600091610fff16614e179190617045565b9050603f600684901c166000614e326040610fff8616617045565b9050603f600685901c166000600f8a900b128015614e54575060008461ffff16115b15614e805761ffff8416614e678a616ced565b614e7191906171ea565b6001600160801b031660408b01525b600088600f0b128015614e97575060008361ffff16115b15614ec35761ffff8316614eaa89616ced565b614eb491906171ea565b6001600160801b031660608b01525b60008261ffff16118015614edb575060008a60400151115b15614f0c578161ffff168a60400151614ef4919061709f565b808b5260408b018051614f0890839061694e565b9052505b60008161ffff16118015614f24575060008a60600151115b15614f59578061ffff168a60600151614f3d919061709f565b60208b0181905260608b018051614f5590839061694e565b9052505b50505050505050505092915050565b6000611de6614f778360801c90565b614f818560801c90565b614f8b91906171ab565b61289084866171ab565b60006401000276a36001600160a01b0383161080614fd0575073fffd8963efd1fc6a506488495d951d5263988d266001600160a01b03831610155b15614fee5760405163015680db60e11b815260040160405180910390fd5b77ffffffffffffffffffffffffffffffffffffffff00000000602083901b166001600160801b03811160071b81811c67ffffffffffffffff811160061b90811c63ffffffff811160051b90811c61ffff811160041b90811c60ff8111600390811b91821c600f811160021b90811c918211600190811b92831c9790881196179094179092171790911717176080811061508f57607f810383901c9150615099565b80607f0383901b91505b908002607f81811c60ff83811c9190911c800280831c81831c1c800280841c81841c1c800280851c81851c1c800280861c81861c1c800280871c81871c1c800280881c81881c1c800280891c81891c1c8002808a1c818a1c1c8002808b1c818b1c1c8002808c1c818c1c1c8002808d1c818d1c1c8002808e1c9c81901c9c909c1c80029c8d901c9e9d607f198f0160401b60c09190911c678000000000000000161760c19b909b1c674000000000000000169a909a1760c29990991c672000000000000000169890981760c39790971c671000000000000000169690961760c49590951c670800000000000000169490941760c59390931c670400000000000000169290921760c69190911c670200000000000000161760c79190911c670100000000000000161760c89190911c6680000000000000161760c99190911c6640000000000000161760ca9190911c6620000000000000161760cb9190911c6610000000000000161760cc9190911c6608000000000000161760cd9190911c66040000000000001617693627a301d71055774c8581026f028f6481ab7f045a5af012a19d003aa9198101608090811d906fdb2df09e81959a81455e260799a0632f8301901d600281810b9083900b1461529957886001600160a01b031661527e826149c1565b6001600160a01b03161115615293578161529b565b8061529b565b815b9998505050505050505050565b6001600160a01b03831661530a5760405162461bcd60e51b815260206004820152602360248201527f455243313135353a206275726e2066726f6d20746865207a65726f206164647260448201526265737360e81b6064820152608401610bac565b3361533a8185600061531b87615426565b61532487615426565b5050604080516020810190915260009052505050565b60008381526004602090815260408083206001600160a01b0388168452909152902054828110156153b95760405162461bcd60e51b8152602060048201526024808201527f455243313135353a206275726e20616d6f756e7420657863656564732062616c604482015263616e636560e01b6064820152608401610bac565b60008481526004602090815260408083206001600160a01b03898116808652918452828520888703905582518981529384018890529092908616917fc3d58168c5ae7397731d063d5bbf3d657854427343f4c083240f7aacaa2d0f62910160405180910390a45050505050565b6040805160018082528183019092526060916000919060208083019080368337019050509050828160008151811061546057615460616a78565b602090810291909101015292915050565b6001600160a01b0384163b15612d3b5760405163f23a6e6160e01b81526001600160a01b0385169063f23a6e61906154b59089908990889088908890600401617210565b6020604051808303816000875af19250505080156154f0575060408051601f3d908101601f191682019092526154ed91810190616a44565b60015b6154fc5761447b617105565b6001600160e01b0319811663f23a6e6160e01b146139fa5760405162461bcd60e51b815260206004820152602860248201527f455243313135353a204552433131353552656365697665722072656a656374656044820152676420746f6b656e7360c01b6064820152608401610bac565b60008060008460020b8660020b816155875761558761702f565b05905060008660020b1280156155b457508460020b8660020b816155ad576155ad61702f565b0760020b15155b156155be57600019015b831561563257600281900b600881901d600181810b600090815260208b9052604090205461010090930760ff81169190911b8001600019019283168015159550919290918561561457888360ff16860302615627565b8861561e82615a20565b840360ff168603025b9650505050506156a5565b600181810160020b600881901d80830b600090815260208b9052604090205461010090920760ff81169390931b60001901199182168015159550909291908561568857888360ff0360ff1686600101010261569e565b888361569383615ac0565b0360ff168660010101025b9650505050505b5094509492505050565b60008080806001600160a01b03808916908a1610158187128015906157345760006156e88989620f42400362ffffff16620f42406142d4565b905082615701576156fc8c8c8c6001615999565b61570e565b61570e8b8d8c60016158d0565b955085811061571f578a965061572e565b61572b8c8b8386615baa565b96505b5061577e565b8161574b576157468b8b8b60006158d0565b615758565b6157588a8c8b6000615999565b935083886000031061576c5789955061577e565b61577b8b8a8a60000385615bf6565b95505b6001600160a01b038a81169087161482156157e15780801561579d5750815b6157b3576157ae878d8c60016158d0565b6157b5565b855b95508080156157c2575081155b6157d8576157d3878d8c6000615999565b6157da565b845b945061582b565b8080156157eb5750815b615801576157fc8c888c6001615999565b615803565b855b9550808015615810575081155b615826576158218c888c60006158d0565b615828565b845b94505b8115801561583b57508860000385115b15615847578860000394505b81801561586657508a6001600160a01b0316876001600160a01b031614155b15615875578589039350615892565b61588f868962ffffff168a620f42400362ffffff16615c42565b93505b50505095509550955095915050565b60007f7fffffffffffffffffffffffffffffffffffffffffffffffffffffffffffffff8211156126ab57600080fd5b6000836001600160a01b0316856001600160a01b031611156158f0579293925b7bffffffffffffffffffffffffffffffff000000000000000000000000606084901b166001600160a01b03868603811690871661592c57600080fd5b8361596257866001600160a01b031661594f8383896001600160a01b03166142d4565b8161595c5761595c61702f565b0461598e565b61598e6159798383896001600160a01b0316615c42565b886001600160a01b0316808204910615150190565b979650505050505050565b6000836001600160a01b0316856001600160a01b031611156159b9579293925b816159ed576159e86001600160801b0384166159d58787617248565b6001600160a01b0316600160601b6142d4565b615a17565b615a176001600160801b038416615a048787617248565b6001600160a01b0316600160601b615c42565b95945050505050565b6000808211615a2e57600080fd5b600160801b8210615a4157608091821c91015b680100000000000000008210615a5957604091821c91015b6401000000008210615a6d57602091821c91015b620100008210615a7f57601091821c91015b6101008210615a9057600891821c91015b60108210615aa057600491821c91015b60048210615ab057600291821c91015b60028210612d5457600101919050565b6000808211615ace57600080fd5b5060ff6001600160801b03821615615ae957607f1901615af1565b608082901c91505b67ffffffffffffffff821615615b0a57603f1901615b12565b604082901c91505b63ffffffff821615615b2757601f1901615b2f565b602082901c91505b61ffff821615615b4257600f1901615b4a565b601082901c91505b60ff821615615b5c5760071901615b64565b600882901c91505b600f821615615b765760031901615b7e565b600482901c91505b6003821615615b905760011901615b98565b600282901c91505b6001821615612d545760001901919050565b600080856001600160a01b031611615bc157600080fd5b6000846001600160801b031611615bd757600080fd5b81615be9576159e88585856001615c82565b615a178585856001615d69565b600080856001600160a01b031611615c0d57600080fd5b6000846001600160801b031611615c2357600080fd5b81615c35576159e88585856000615d69565b615a178585856000615c82565b6000615c4f8484846142d4565b905060008280615c6157615c6161702f565b8486091115611de6576000198110615c7857600080fd5b6001019392505050565b60008115615cf45760006001600160a01b03841115615cb857615cb384600160601b876001600160801b03166142d4565b615ccf565b615ccf6001600160801b038616606086901b61709f565b9050615cec615ce7826001600160a01b038916616f5f565b615e6b565b915050610ce9565b60006001600160a01b03841115615d2257615d1d84600160601b876001600160801b0316615c42565b615d3f565b615d3f606085901b6001600160801b038716808204910615150190565b905080866001600160a01b031611615d5657600080fd5b615cec816001600160a01b03881661694e565b600082600003615d7a575083610ce9565b7bffffffffffffffffffffffffffffffff000000000000000000000000606085901b168215615e1e576001600160a01b03861684810290858281615dc057615dc061702f565b0403615df057818101828110615dee57615de483896001600160a01b031683615c42565b9350505050610ce9565b505b50615cec8185615e096001600160a01b038a168361709f565b615e139190616f5f565b808204910615150190565b6001600160a01b03861684810290858281615e3b57615e3b61702f565b04148015615e4857508082115b615e5157600080fd5b808203615de4615ce7846001600160a01b038b1684615c42565b806001600160a01b0381168114612d5457600080fd5b6001600160a01b03811681146143ed57600080fd5b60008060408385031215615ea957600080fd5b8235615eb481615e81565b946020939093013593505050565b6001600160e01b0319811681146143ed57600080fd5b600060208284031215615eea57600080fd5b8135611de681615ec2565b8035600281900b8114612d5457600080fd5b60008060008060808587031215615f1d57600080fd5b843593506020850135615f2f81615e81565b9250615f3d60408601615ef5565b9150615f4b60608601615ef5565b905092959194509250565b600080600060608486031215615f6b57600080fd5b8335615f7681615e81565b92506020840135615f8681615e81565b929592945050506040919091013590565b600060208284031215615fa957600080fd5b5035919050565b60005b83811015615fcb578181015183820152602001615fb3565b50506000910152565b60008151808452615fec816020860160208601615fb0565b601f01601f19169290920160200192915050565b602081526000611de66020830184615fd4565b60006020828403121561602557600080fd5b8135611de681615e81565b634e487b7160e01b600052604160045260246000fd5b6060810181811067ffffffffffffffff8211171561606657616066616030565b60405250565b601f8201601f1916810167ffffffffffffffff8111828210171561609257616092616030565b6040525050565b62ffffff811681146143ed57600080fd5b600060a082840312156160bc57600080fd5b60405160a0810181811067ffffffffffffffff821117156160df576160df616030565b60405290508082356160f081615e81565b8152602083013561610081615e81565b6020820152604083013561611381616099565b604082015261612460608401615ef5565b6060820152608083013561613781615e81565b6080919091015292915050565b60008083601f84011261615657600080fd5b50813567ffffffffffffffff81111561616e57600080fd5b60208301915083602082850101111561618657600080fd5b9250929050565b600080600080600061010086880312156161a657600080fd5b6161b087876160aa565b945060a0860135935060c0860135925060e086013567ffffffffffffffff8111156161da57600080fd5b6161e688828901616144565b969995985093965092949392505050565b600060a0828403121561620957600080fd5b611de683836160aa565b600067ffffffffffffffff82111561622d5761622d616030565b5060051b60200190565b600082601f83011261624857600080fd5b8135602061625582616213565b604051616262828261606c565b83815260059390931b850182019282810191508684111561628257600080fd5b8286015b8481101561629d5780358352918301918301616286565b509695505050505050565b600067ffffffffffffffff8211156162c2576162c2616030565b50601f01601f191660200190565b600082601f8301126162e157600080fd5b81356162ec816162a8565b6040516162f9828261606c565b82815285602084870101111561630e57600080fd5b82602086016020830137600092810160200192909252509392505050565b600080600080600060a0868803121561634457600080fd5b853561634f81615e81565b9450602086013561635f81615e81565b9350604086013567ffffffffffffffff8082111561637c57600080fd5b61638889838a01616237565b9450606088013591508082111561639e57600080fd5b6163aa89838a01616237565b935060808801359150808211156163c057600080fd5b506163cd888289016162d0565b9150509295509295909350565b600080604083850312156163ed57600080fd5b50508035926020909101359150565b6000806040838503121561640f57600080fd5b823567ffffffffffffffff8082111561642757600080fd5b818501915085601f83011261643b57600080fd5b8135602061644882616213565b604051616455828261606c565b83815260059390931b850182019282810191508984111561647557600080fd5b948201945b8386101561649c57853561648d81615e81565b8252948201949082019061647a565b965050860135925050808211156164b257600080fd5b506164bf85828601616237565b9150509250929050565b600081518084526020808501945080840160005b838110156164f9578151875295820195908201906001016164dd565b509495945050505050565b602081526000611de660208301846164c9565b60008060008084860361012081121561652f57600080fd5b61653987876160aa565b94506060609f198201121561654d57600080fd5b5060405161655a81616046565b61656660a08701615ef5565b815261657460c08701615ef5565b602082015260e08601356040820152925061010085013567ffffffffffffffff8111156165a057600080fd5b6165ac87828801616144565b95989497509550505050565b60008060008060e085870312156165ce57600080fd5b6165d886866160aa565b935060a08501356165e881615e81565b925060c085013567ffffffffffffffff8111156165a057600080fd5b6000806020838503121561661757600080fd5b823567ffffffffffffffff81111561662e57600080fd5b61663a85828601616144565b90969095509350505050565b80358015158114612d5457600080fd5b6000806040838503121561666957600080fd5b823561667481615e81565b915061668260208401616646565b90509250929050565b6000806040838503121561669e57600080fd5b82356166a981615e81565b915060208301356166b981615e81565b809150509250929050565b60008083601f8401126166d657600080fd5b50813567ffffffffffffffff8111156166ee57600080fd5b6020830191508360208260051b850101111561618657600080fd5b60008060008060008060008060a0898b03121561672557600080fd5b883561673081615e81565b9750602089013561674081615e81565b9650604089013567ffffffffffffffff8082111561675d57600080fd5b6167698c838d016166c4565b909850965060608b013591508082111561678257600080fd5b61678e8c838d016166c4565b909650945060808b01359150808211156167a757600080fd5b506167b48b828c01616144565b999c989b5096995094979396929594505050565b60008060008060008060a087890312156167e157600080fd5b86356167ec81615e81565b955060208701356167fc81615e81565b94506040870135935060608701359250608087013567ffffffffffffffff81111561682657600080fd5b61683289828a01616144565b979a9699509497509295939492505050565b600080600080600060a0868803121561685c57600080fd5b853561686781615e81565b9450602086013561687781615e81565b93506040860135925060608601359150608086013567ffffffffffffffff8111156168a157600080fd5b6163cd888289016162d0565b6000806000808486036101208112156168c557600080fd5b6168cf87876160aa565b94506060609f19820112156168e357600080fd5b506040516168f081616046565b6168fc60a08701616646565b815260c0860135602082015260e086013561691681615e81565b6040820152925061010085013567ffffffffffffffff8111156165a057600080fd5b634e487b7160e01b600052601160045260246000fd5b81810381811115610bda57610bda616938565b600181811c9082168061697557607f821691505b60208210810361699557634e487b7160e01b600052602260045260246000fd5b50919050565b81835281816020850137506000828201602090810191909152601f909101601f19169091010190565b60006101206001600160a01b0389168352616a2460208401896001600160a01b0380825116835280602083015116602084015262ffffff6040830151166040840152606082015160020b6060840152806080830151166080840152505050565b8660c08401528560e08401528061010084015261529b818401858761699b565b600060208284031215616a5657600080fd5b8151611de681615ec2565b8082028115828204841417610bda57610bda616938565b634e487b7160e01b600052603260045260246000fd5b600060018201616aa057616aa0616938565b5060010190565b60006101406001600160a01b0388168352616b0760208401886001600160a01b0380825116835280602083015116602084015262ffffff6040830151166040840152606082015160020b6060840152806080830151166080840152505050565b8551600290810b60c08501526020870151900b60e084015260408601516101008401525b80610120840152616b3f818401858761699b565b98975050505050505050565b60006101606001600160a01b0389168352616bab60208401896001600160a01b0380825116835280602083015116602084015262ffffff6040830151166040840152606082015160020b6060840152806080830151166080840152505050565b8651600290810b60c08501526020880151900b60e084015260408701516101008401525b856101208401528061014084015261529b818401858761699b565b60006101006001600160a01b038089168452616c4b60208501896001600160a01b0380825116835280602083015116602084015262ffffff6040830151166040840152606082015160020b6060840152806080830151166080840152505050565b861660c084015260e08301819052616b3f818401858761699b565b60006101206001600160a01b03808a168452616cc7602085018a6001600160a01b0380825116835280602083015116602084015262ffffff6040830151166040840152606082015160020b6060840152806080830151166080840152505050565b80881660c0850152508560020b60e08401528061010084015261529b818401858761699b565b600081600f0b6f7fffffffffffffffffffffffffffffff198103616d1357616d13616938565b60000392915050565b602081526000610ce960208301848661699b565b600060208284031215616d4257600080fd5b815167ffffffffffffffff811115616d5957600080fd5b8201601f81018413616d6a57600080fd5b8051616d75816162a8565b604051616d82828261606c565b828152866020848601011115616d9757600080fd5b616da8836020830160208701615fb0565b9695505050505050565b60006101406001600160a01b0388168352616e1260208401886001600160a01b0380825116835280602083015116602084015262ffffff6040830151166040840152606082015160020b6060840152806080830151166080840152505050565b8551151560c0840152602086015160e084015260408601516001600160a01b0316610100840152616b2b565b600060208284031215616e5057600080fd5b8151611de681616099565b60006101606001600160a01b0389168352616ebb60208401896001600160a01b0380825116835280602083015116602084015262ffffff6040830151166040840152606082015160020b6060840152806080830151166080840152505050565b8651151560c0840152602087015160e084015260408701516001600160a01b0316610100840152616bcf565b8082018281126000831280158216821582161715616f0757616f07616938565b505092915050565b60a08101610bda82846001600160a01b0380825116835280602083015116602084015262ffffff6040830151166040840152606082015160020b6060840152806080830151166080840152505050565b80820180821115610bda57610bda616938565b604081526000616f8560408301856164c9565b8281036020840152615a1781856164c9565b6001600160801b03818116838216019080821115611d2d57611d2d616938565b6001600160801b03828116828216039080821115611d2d57611d2d616938565b600f81810b9083900b016f7fffffffffffffffffffffffffffffff81136f7fffffffffffffffffffffffffffffff1982121715610bda57610bda616938565b60006020828403121561702857600080fd5b5051919050565b634e487b7160e01b600052601260045260246000fd5b600061ffff8084168061705a5761705a61702f565b92169190910692915050565b60008160020b627fffff198103616d1357616d13616938565b8181036000831280158383131683831282161715611d2d57611d2d616938565b6000826170ae576170ae61702f565b500490565b60006001600160a01b03808816835280871660208401525060a060408301526170df60a08301866164c9565b82810360608401526170f181866164c9565b90508281036080840152616b3f8185615fd4565b600060033d111561711e5760046000803e5060005160e01c5b90565b600060443d101561712f5790565b6040516003193d81016004833e81513d67ffffffffffffffff816024840111818411171561715f57505050505090565b82850191508151818111156171775750505050505090565b843d87010160208285010111156171915750505050505090565b6171a06020828601018761606c565b509095945050505050565b600f82810b9082900b036f7fffffffffffffffffffffffffffffff1981126f7fffffffffffffffffffffffffffffff82131715610bda57610bda616938565b60006001600160801b03808416806172045761720461702f565b92169190910492915050565b60006001600160a01b03808816835280871660208401525084604083015283606083015260a0608083015261598e60a0830184615fd4565b6001600160a01b03828116828216039080821115611d2d57611d2d61693856fe42429cc76d46bf08df26d19473353195d5f3713a3c92736054a3ec1c5bee41aaa26469706673582212205c20cec6ba4eb6107872ed05d27a817ea0b6ac0cb001a2082ed769c5abbb0eee64736f6c637823302e382e32322d63692e323032332e382e31332b636f6d6d69742e64376165346439340054",
        "linkReferences": {}
    },
    "methodIdentifiers": {
        "MAX_TICK_SPACING()": "60460f06",
        "MIN_PROTOCOL_FEE_DENOMINATOR()": "84e41c5e",
        "MIN_TICK_SPACING()": "07eff0dd",
        "balanceOf(address,uint256)": "00fdd58e",
        "balanceOfBatch(address[],uint256[])": "4e1273f4",
        "collectHookFees(address,address,uint256)": "effd18c0",
        "collectProtocolFees(address,address,uint256)": "8161b874",
        "currencyDelta(address,address)": "a54b2831",
        "donate((address,address,uint24,int24,address),uint256,uint256,bytes)": "234266d7",
        "extsload(bytes32)": "1e2eaeaf",
        "extsload(bytes32,uint256)": "35fd631a",
        "getLiquidity(bytes32)": "fa6793d5",
        "getLiquidity(bytes32,address,int24,int24)": "33aa955b",
        "getLock(uint256)": "d68f4dd1",
        "getLockSentinel()": "174a9498",
        "getPosition(bytes32,address,int24,int24)": "048d9c70",
        "getSlot0(bytes32)": "c815641c",
        "hookFeesAccrued(address,address)": "b4c41939",
        "initialize((address,address,uint24,int24,address),uint160,bytes)": "695c5bf5",
        "isApprovedForAll(address,address)": "e985e9c5",
        "lock(bytes)": "81548319",
        "mint(address,address,uint256)": "c6c3bbe6",
        "modifyPosition((address,address,uint24,int24,address),(int24,int24,int256),bytes)": "61ae449a",
        "onERC1155BatchReceived(address,address,uint256[],uint256[],bytes)": "bc197c81",
        "onERC1155Received(address,address,uint256,uint256,bytes)": "f23a6e61",
        "owner()": "8da5cb5b",
        "pools(bytes32)": "b5217bb4",
        "protocolFeeController()": "f02de3b2",
        "protocolFeesAccrued(address)": "97e8cd4e",
        "reservesOf(address)": "93c85a21",
        "safeBatchTransferFrom(address,address,uint256[],uint256[],bytes)": "2eb2c2d6",
        "safeTransferFrom(address,address,uint256,uint256,bytes)": "f242432a",
        "setApprovalForAll(address,bool)": "a22cb465",
        "setHookFees((address,address,uint24,int24,address))": "af440f82",
        "setOwner(address)": "13af4035",
        "setProtocolFeeController(address)": "2d771389",
        "setProtocolFees((address,address,uint24,int24,address))": "282076cc",
        "settle(address)": "6a256b29",
        "supportsInterface(bytes4)": "01ffc9a7",
        "swap((address,address,uint24,int24,address),(bool,int256,uint160),bytes)": "f3cd914c",
        "take(address,address,uint256)": "0b0d9c09",
        "uri(uint256)": "0e89341c"
    },
    "id": 3
}